:1000000000600020B5020000DD020000DF020000F9
:10001000E1020000E3020000E50200000000000031
:10002000000000000000000000000000E7020000E7
:10003000E902000000000000EB020000ED020000F9
:10004000350B0000EF020000910B0000EF020000F2
:10005000EF02000000000000EF020000EF020000CD
:100060006D0F00004D0D0000EF020000EF020000D8
:10007000EF020000EF020000EF020000EF020000BC
:10008000EF020000F5040000EF020000EF020000A4
:1000900095050000EF020000EF020000EF020000F3
:1000A000EF020000EF02000000000000000000006E
:1000B000EF020000EF02000000000000000000005E
:1000C0000000000000000000000000000000000030
:1000D0000000000000000000000000000000000020
:1000E0000000000000000000000000000000000010
:1000F0000000000000000000000000000000000000
:1001000000000000000000000000000000000000EF
:1001100000000000000000000000000000000000DF
:1001200000000000000000000000000000000000CF
:1001300000000000000000000000000000000000BF
:1001400000000000000000000000000000000000AF
:10015000000000000000000000000000000000009F
:10016000000000000000000000000000000000008F
:10017000000000000000000000000000000000007F
:10018000000000000000000000000000000000006F
:10019000000000000000000000000000000000005F
:1001A000000000000000000000000000000000004F
:1001B000000000000000000000000000000000003F
:1001C000000000000000000000000000000000002F
:1001D000000000000000000000000000000000001F
:1001E000000000000000000000000000000000000F
:1001F00000000000000000000000000000000000FF
:1002000010B5054C237833B9044B13B10448AFF350
:1002100000800123237010BD6C000020000000004E
:100220004C11000008B5034B1BB103490348AFF361
:10023000008008BD00000000700000204C1100008C
:10024000154B002B08BF134B9D46A3F5803A0021A8
:100250008B460F461348144A121A00F053FF0F4BF7
:10026000002B00D098470E4B002B00D09847002061
:10027000002104000D000D48002802D00C48AFF307
:10028000008000F01BFF2000290000F06BFD00F053
:1002900001FF00BF00000800006000200000000017
:1002A000000000006C00002004030020000000009B
:1002B000000000000649074A074B9B1A03DD043B78
:1002C000C858D050FBDC00F013F8FFF7B9FF00006E
:1002D00058110000000000206C000020FEE7FEE73F
:1002E000FEE7FEE7FEE7FEE7FEE7FEE7FEE7FEE7E6
:1002F00030B45E4B5E4D1A685E4B5F4C4FF08041F0
:10030000C2F342322A6000204FF08052C1F80C0143
:10031000C1F81001C1F83805D2F80414C3F820154B
:10032000D2F80814C3F82415D2F80C14C3F8281511
:10033000D2F81014C3F82C15D2F81414C3F83015E1
:10034000D2F81814C3F83415D2F81C14C3F84015A9
:10035000D2F82014C3F84415D2F82414C3F8481571
:10036000D2F82814C3F84C15D2F82C14C3F8501541
:10037000D2F83014C3F85415D2F83414C3F8601509
:10038000D2F83814C3F86415D2F83C14C3F86815D1
:10039000D2F84014C3F86C152168D2F84424C3F88D
:1003A000702508291ED0354B35491B684FF0804217
:1003B00003F04F030B60D2F80034DB0744BF6FF04B
:1003C0000103C2F800344FF01023D3F80022002AB2
:1003D0001BDBD3F80432002B17DB2A4B2A4A1A60A6
:1003E00030BC7047294B1B68002BDCD1284A2449BC
:1003F000224BFB20C2F818050A681B6822F00F0286
:1004000003F00F0313430B60CDE7224B0122C3F827
:100410000425D3F80024002AFBD04FF01023122229
:100420001C49C3F80022D1F80034002BFBD04FF058
:1004300010221221174BC2F80412D3F80024002A0C
:10044000FBD000221349C3F80425D1F80034002B57
:10045000FBD0BFF34F8F1049104BCA6802F4E06223
:100460001343CB60BFF34F8F00BFFDE74402001082
:100470003C05004000C00040300100105802001050
:10048000E40E0040000000200090D0033401001072
:1004900000F0004000E0014000ED00E00400FA053B
:1004A00000B585B000230390194601AA44F201006B
:1004B000CDE9013300F004F805B05DF804FB00BF9E
:1004C00072B6094B1B68DB0700D500BEBFF34F8F28
:1004D0000649074BCA6802F4E0621343CB60BFF3DE
:1004E0004F8F00BFFDE700BFF0ED00E000ED00E042
:1004F0000400FA05F8B5204A204B0024C2F8404118
:10050000C2F84441C2F84841C2F84C41C2F8004127
:10051000C2F804411B6833B31949D2F804550A687C
:10052000AD1A1A6825F07F45AA4227460DD8197CD6
:10053000DE69AD1A144419B11F74D3E90520904740
:100540001EB133461A68AA42F1D90E490E4A0B78F9
:1005500012789A4208D00D490D4A41F823404FF4D1
:100560008013C2F80031F8BD531CDBB2022B08BF68
:1005700000230B70EFE700BF00100140A80100202E
:10058000A4010020A1010020A0010020980100206A
:1005900000E100E02DE9F04F8C4A8D49137809788D
:1005A000DFF85082994285B0D8F800A000F07B8136
:1005B0000133DBB2022B08BF002386481370864A42
:1005C000076852F823107B1823F07F430024036050
:1005D000534626462046A446ABB11A688A4200F22A
:1005E0006581DC68C3F800C0891A1044DA6934B147
:1005F0003D1825F07F45C3E90154DE611E461346D0
:100600000124002BE9D1002C40F07C8101230093D0
:10061000724B734FDFF8E09143F0010301935546AD
:100620004FF0000B46B3D6E901C13446F669694B79
:100630006C481A68ACEB020323F07F43834248D82E
:100640000B44236000220121C4E90122E2612174EC
:10065000002D5DD02A689A424DD2284603E00A68F0
:100660009A424FD20846C1699B1A0029F7D12360EC
:10067000E161C461002ED6D178783978884264D09F
:100680000B4603EB43034C1CBA7807EBC303E1B200
:100690008A421A79397004BF00213970022A9C6895
:1006A00044D0032A38D0012AE8D1227C002AE5D19F
:1006B000D3F80CC0C4F804C01969A1605869E0609F
:1006C00099F800009B69A3610028B0D0626094464D
:1006D000ADE7A2EB0C0222F07F428A4202D28B1AD3
:1006E0002360AFE700230122C4E90033A360E36184
:1006F00022746DB12A68C8F80040D31A2B60E561F6
:1007000025468FE7D21A0A602360E161C461B1E730
:10071000C8F80040254685E7002DAFD000232B7494
:10072000ED69002DFBD1C8F80050A5E74DB1AC42F2
:100730002B4603D1E4E094422FD01346DA69002A15
:10074000F9D10023237488429AD1BBF1000F01D163
:10075000554553D0002D56D1234E244A1F4C4FF4FB
:1007600080334FF400310127C2F880103C43C6F8B3
:1007700048334FF43C60C6F808337760A047154B08
:10078000B7604FF43C601D60A047194B1D700023FB
:1007900089F8003005B0BDE8F08FA34200F09180E9
:1007A000E0692168D861002800F086802A46036845
:1007B0000B440360AA424FF0000339787878237421
:1007C0001CBF15464FF0010BBDE700BFA001002084
:1007D000A1010020A4010020980100203011000098
:1007E00088000020FEFF7F000010014000E100E0D3
:1007F00095010020A801002094010020009B002BFF
:10080000C5D0002DA8D0434B434A1C68D2F80465DC
:10081000424FD5F800A03978331B23F07F43DD1C0D
:10082000B9B93F493F4B4FF48030C2F844034FF011
:100830000108C2F804034FF40030C1F8800143F00E
:1008400001030860C2F800804FF43C60984787F8C5
:100850000080AA452CBF04EB0A0363192E4923F03C
:100860007F43C1F84035D1F80425921B9B1B22F031
:100870007F4223F07F4303329A4288D9294BD1F833
:100880000425C1F8402543F001034FF43C6098472C
:10089000234B4FF40032C3F80021002389F80030C5
:1008A00005B0BDE8F08F00260096B1E674BB521A81
:1008B0001A6001230093ABE600233978787823741B
:1008C00041E71946EA69C8F8002092B9CDE902313A
:1008D000114BDFF840C001209860019B89F80000AF
:1008E000CCF800204FF43C609847DDE90231D8F89D
:1008F0000020C8690968D86100287FF458AF59E71B
:100900002946DFE7C8F800309A467FE6C8F800308D
:100910009A46CCE7A4010020001001409501002078
:1009200000E100E0301100002DE9F8431F4D204E9A
:10093000204FDFF898804FF480334FF400324FF0AF
:1009400001090024C6F8802047EA0907C5F84833A2
:100950004FF43C60C5F80833C5F80490B847C5F8B3
:1009600008904FF43C60C8F80040B847124A134B57
:1009700013491C601470134B134A0C700B21147034
:100980001C8099704FF48012C023C6F8802186F82D
:1009900014333260C5F8084586F81133D5F80435AC
:1009A000C8F800302046BDE8F88300BF00100140C1
:1009B00000E100E03011000095010020A8010020B6
:1009C000A001002088000020A1010020A401002037
:1009D00072B6024A1368013313607047AC010020FD
:1009E000034A1368013B136003B962B6704700BF46
:1009F000AC01002010B570B101280BD10D4C23695A
:100A0000A0703BB1D3E900230120226198472369FC
:100A1000002BF7D110BD074CA36801226270002B98
:100A2000F8D0D3E900230020A2609847A368002BE8
:100A3000F7D1EFE7B001002038B50A4C23786BB945
:100A400009486360A3602361E36000F03DF8054658
:100A500000F046F801232370284638BD8525284636
:100A600038BD00BFB0010020F509000038B5154CB5
:100A7000A378054673B110B1436801209847002060
:100A8000FFF7A6FFE3680133E3600020BDE83840CC
:100A9000FFF7A6BF03F0FF00FFF79AFF65B12269D9
:100AA00042B1954208D0134601E09D4204D01B6834
:100AB000002BFAD12A602561E368002BE2D100F017
:100AC00021F8DFE7B0010020044A137923B901219E
:100AD000106011711846704785207047C4010020CE
:100AE000074B1A68D20704D4C021012283F80013EF
:100AF0001A604FF080430122C3F81825704700BFE9
:100B000000E100E010B4094B094A0021196083B0EC
:100B10001B680193019C4FF0804102200123C1F822
:100B20000403136003B010BC704700BF0401004011
:100B30000800004010B5134B1A6882B062B1002063
:100B400018601B6800934FF0804201210E4B009CFF
:100B5000C2F808131B6898470C4B1A6882B1002230
:100B60001A601B6801934FF080420221064B0198E6
:100B7000C2F808131B68012002B0BDE810401847F6
:100B800002B010BD00010040C4010020040100407B
:100B900030B56C4AD2F8043399058BB066D5D2F8DB
:100BA0002431002B62D00023C2F82431D2F8243142
:100BB00003934FF40171644B0398C2F8081393F840
:100BC000291009B9012151605E4902228DF81820CF
:100BD000D1F88024C1F880249869D968099200224C
:100BE000CDE90710C3E90622D3E9001406A8A047FF
:100BF000544AD2F81C31BBB1534B186A5969884228
:100C000069D350480022C0F81C21D0F81C01019083
:100C1000019849B198688DF8182008915A61079099
:100C2000D3E9001206A89047464AD2F84431DBB116
:100C30000021454BC2F84411D2F8440193F8291021
:100C40000090009809B1012111609A6962B10022F7
:100C5000586AD9689A610122CDE907108DF81820E9
:100C600006A8D3E9001290470BB030BD354AD2F840
:100C700004335B07BCD5D2F80831002BB8D0324B17
:100C8000996900293CD00021C2F80811D2F8081156
:100C900004910499D868596AD2F8182542545A6ABE
:100CA000996901325A625A6A8A42A1D1DA6919688D
:100CB000002A2ED0D8685D6A1C699A6107900022CC
:100CC0000120DC60DA615A628DF8180008955B68D3
:100CD00006A898478CE793F8280000F0FF04002846
:100CE0008FD1C2F81C41D2F81C11029102999C6864
:100CF000186A196A205C01311962C2F81C0593E771
:100D0000C2F80811D2F8080105900598D2F8182504
:100D1000C9E793F8292012B90A4A01205060094A0C
:100D20004FF40170C2F80803586ADA68089000248A
:100D3000012007928DF818005A689C6106A8904718
:100D400056E700BF00200040CC010020044BD3F840
:100D50004021012A04BF0022C3F84021704700BF90
:100D6000009000402DE9F843FFF766FE08B1FFF759
:100D700097FB0020FFF77AFEFFF7D6FD08B1FFF7DB
:100D80008FFB4FF0A04340F203314FF080444FF40B
:100D90000032304EC3F844174FF48000C3F80825E2
:100DA00000250122C3F85817C3F80805C3F85C17DB
:100DB00010463260C4F80051226000F0CFF8D4F839
:100DC0000031002BFBD0244B4FF480714FF40072A4
:100DD00019601A6062B6214C4FF4000844F0010417
:100DE000C1464FF0A0464FF400370022C6F80895E0
:100DF0001046032100F094F841F28835C6F80C75CE
:100E00004FF47A40A047013DFAD128462822032119
:100E100000F086F841F288354FF47A40A047013D52
:100E2000FAD128465022032100F07AF841F28835A1
:100E30004FF47A40A047013DFAD1C6F80C8541F243
:100E40008835C6F808754FF47A40A047013DFAD1BD
:100E5000CBE700BF00D0004000E100E040110000FF
:100E600070B42A4B2A4DD3F850262A4C22F00102A6
:100E7000C3F8502600210122C3F81855C3F83415D1
:100E8000C3F82C15C3F830252278D2B2012A35D008
:100E900011D3022A0DD1CC214FF0CC32C3F8241546
:100EA000C3F81C250428194B0CBF1B4A0822C3F8A1
:100EB000142570BC7047194AC2F80011D2F80031ED
:100EC000002BFBD0114BD2F80815144AC3F8241597
:100ED0000024264604212402C2F80061D2F8003121
:100EE000002BFBD0D2F808554B1E13F0FF0144EA4B
:100EF0000504F0D1054BC3F81C45D3E7F0214FF0B2
:100F0000F032C3F82415C3F81C25CBE700100040CD
:100F1000FF000403000300200800000100D000408F
:100F20000D4B30B400240125C3F80042C3F8104132
:100F30001D61D3F81041002CFBD001240025C3F81B
:100F40001051C3F80042C3F80C05C3F81015C3F8DC
:100F500008251C6030BC70470010004001289CBF71
:100F60004FF08043C3F87805704700BF2DE9F0418A
:100F70003E483F4A3F4B4049404E04780D78107838
:100F80001A78D6F84031002B32D0D1B23C4B002237
:100F9000C6F840211B78E4B2EDB2C0B203F0FF0CFA
:100FA000002B3CD0374E384B3778C3F800224FF037
:100FB000010CC3F81021FFB2C3F810C0D3F8102100
:100FC000002AFBD001224FF0000CC3F810C1C3F877
:100FD0000022C3F80C15C3F81005C3F808751A6091
:100FE00033780133DBB233703378A34288BF357076
:100FF000224BD3F8442142B10021214AC3F84411C5
:10100000137823B9204B01221A60BDE8F0811F4BF1
:101010001B78002BF9D11C4B01221A60F5E71B4B02
:10102000184E1B78002BDBD096F80080164F01235A
:10103000C7F800C25FFA88F8C7F810C13B61D7F85B
:101040001031002BFBD00023C7F810312122104BA8
:10105000C7F81005C7F80022C7F80435FFF700FFEE
:101060000123C7F808857B60BAE700BFF9010020BB
:10107000FB010020FE010020FA010020008000405A
:10108000FD010020F801002000100040FC010020BC
:101090000002002008B5074B044613B10021AFF34E
:1010A0000080054B1868836A03B19847204600F01A
:1010B00031F800BF000000004811000070B50D4E6F
:1010C0000D4CA41BA4100025A54209D10B4E0C4CBD
:1010D00000F022F8A41BA4100025A54205D170BD84
:1010E00056F8253098470135EEE756F825309847F1
:1010F0000135F2E764000020640000206400002055
:101100006800002002440346934200D1704703F870
:10111000011BF9E7FEE700BFF8B500BFF8BC08BC4B
:101120009E467047F8B500BFF8BC08BC9E467047A5
:101130000338FDD8704700000000000000000000E8
:101140000338FDD8704700000400002000000000B4
:08115000F0F0FF7F0100000038
:101158000090D00300000000000000000000000024
:101168000000000000000000000000000000000077
:101178000000000000000000000000000000000067
:101188000000000000000000000000000000000057
:101198000000000000000000000000000000000047
:1011A8000000000000000000000000000000000037
:0C11B80000000000250200000102000001
:04000003000002B542
:00000001FF
